:020000040800F2
:100000006806002061010008690100086B01000812
:100010006D0100086F010008710100080000000078
:100020000000000000000000000000007301000854
:100030007501000800000000770100087901000840
:100040007B0100087B0100087B0100080000000024
:10005000000000007B0100087B0100087B01000814
:100060007B010008000000007B0100087B01000804
:100070007B010008000000007B0100087B010008F4
:100080007B0100087B010008000000007B010008E4
:100090007B010008000000000000000000000000DC
:1000A0000000000000000000000000007B010008CC
:1000B0007B0100087B0100087B0100087B01000830
:1000C00000F002F800F03AF80AA090E8000C824430
:1000D0008344AAF10107DA4501D100F02FF8AFF20D
:1000E000090EBAE80F0013F0010F18BFFB1A43F016
:1000F00001031847F001000010020000103A24BF6D
:1001000078C878C1FAD8520724BF30C830C144BF7C
:1001100004680C60704700000023002400250026BE
:10012000103A28BF78C1FBD8520728BF30C148BF5A
:100130000B6070471FB51FBD10B510BD00F097F8DC
:100140001146FFF7F7FF00F008F800F0B5F803B428
:10015000FFF7F2FF03BC00F0BDF800BFFEE70000B0
:100160000948804709480047FEE7FEE7FEE7FEE74B
:10017000FEE7FEE7FEE7FEE7FEE7FEE70448054987
:10018000054A064B7047000023020008C100000822
:100190006800002068060020680200206802002035
:1001A00030B52D4CE46804F00204022C01D12B4838
:1001B00000E02A48284CE46804F0010404B1400837
:1001C0000146254CE46804F00404042C05D1224CBB
:1001D0006468C4F30324631C59431F4CE468C4F3EC
:1001E000012424B1012C06D0022C13D10DE01B4CAC
:1001F0001B4D2C6013E0184CE468C4F30314641C1A
:10020000B1FBF4F2164C226009E04FF40044144DA7
:100210002C6004E049F64044114D2C6000BF00BF43
:1002200030BD00B50F480C49C8610846C0680020C1
:10023000C860084640680020486008468068002082
:10024000886008460069002008610846406900206F
:100250004861FFF7A5FF00BD0000024000127A00D0
:100260000000002010000008704770477047754676
:1002700000F02CF8AE4605006946534620F0070012
:10028000854618B020B5FFF779FFBDE820404FF054
:1002900000064FF000074FF000084FF0000B21F070
:1002A0000701AC46ACE8C009ACE8C009ACE8C0093D
:1002B000ACE8C0098D46704710B50446AFF3008026
:1002C0002046BDE81040FFF742BF000000487047DD
:1002D0000400002001491820ABBEFEE72600020002
:1002E0007047000004030008000000200400000024
:1002F000FC00000808030008040000206406000059
:080300001801000800127A0048
:04000005080000C12E
:00000001FF
